{"contracts/Heredity.sol":{"Heredity":{"abi":[{"anonymous":false,"inputs":[{"indexed":true,"internalType":"uint256","name":"id","type":"uint256"},{"indexed":true,"internalType":"address","name":"beneficiary","type":"address"},{"indexed":false,"internalType":"uint256","name":"amount","type":"uint256"}],"name":"TestamentClaimed","type":"event"},{"anonymous":false,"inputs":[{"indexed":true,"internalType":"uint256","name":"id","type":"uint256"},{"indexed":true,"internalType":"address","name":"creator","type":"address"},{"indexed":true,"internalType":"address","name":"beneficiary","type":"address"},{"indexed":false,"internalType":"uint256","name":"deadline","type":"uint256"},{"indexed":false,"internalType":"uint256","name":"amount","type":"uint256"}],"name":"TestamentCreated","type":"event"},{"inputs":[{"internalType":"uint256","name":"_testamentId","type":"uint256"}],"name":"claimTestament","outputs":[],"stateMutability":"nonpayable","type":"function"},{"inputs":[{"internalType":"string","name":"_name","type":"string"},{"internalType":"address","name":"_beneficiary","type":"address"},{"internalType":"string","name":"_encryptedData","type":"string"},{"internalType":"uint256","name":"_deadline","type":"uint256"}],"name":"createTestament","outputs":[],"stateMutability":"payable","type":"function"},{"inputs":[{"internalType":"uint256","name":"_testamentId","type":"uint256"}],"name":"getTestamentDetails","outputs":[{"internalType":"string","name":"name","type":"string"},{"internalType":"address","name":"creator","type":"address"},{"internalType":"address","name":"beneficiary","type":"address"},{"internalType":"string","name":"encryptedData","type":"string"},{"internalType":"uint256","name":"deadline","type":"uint256"},{"internalType":"uint256","name":"amount","type":"uint256"},{"internalType":"bool","name":"claimed","type":"bool"},{"internalType":"uint256","name":"createdAt","type":"uint256"}],"stateMutability":"view","type":"function"},{"inputs":[{"internalType":"address","name":"_beneficiary","type":"address"}],"name":"getTestamentsByBeneficiary","outputs":[{"internalType":"uint256[]","name":"","type":"uint256[]"}],"stateMutability":"view","type":"function"},{"inputs":[{"internalType":"address","name":"_creator","type":"address"}],"name":"getTestamentsByCreator","outputs":[{"internalType":"uint256[]","name":"","type":"uint256[]"}],"stateMutability":"view","type":"function"},{"inputs":[{"internalType":"uint256","name":"","type":"uint256"}],"name":"testaments","outputs":[{"internalType":"string","name":"name","type":"string"},{"internalType":"address","name":"creator","type":"address"},{"internalType":"address","name":"beneficiary","type":"address"},{"internalType":"string","name":"encryptedData","type":"string"},{"internalType":"uint256","name":"deadline","type":"uint256"},{"internalType":"uint256","name":"amount","type":"uint256"},{"internalType":"bool","name":"claimed","type":"bool"},{"internalType":"uint256","name":"createdAt","type":"uint256"}],"stateMutability":"view","type":"function"},{"inputs":[],"name":"totalTestaments","outputs":[{"internalType":"uint256","name":"","type":"uint256"}],"stateMutability":"view","type":"function"}],"evm":{"bytecode":{"linkReferences":{},"object":"6080604052348015600f57600080fd5b5061197e8061001f6000396000f3fe6080604052600436106100705760003560e01c80637fd78f2e1161004e5780637fd78f2e14610112578063d5df76a31461013b578063e33113c21461017f578063f48dddbf146101bc57610070565b80632741852e14610075578063525a7d291461009157806371238d65146100d5575b600080fd5b61008f600480360381019061008a9190611047565b6101e7565b005b34801561009d57600080fd5b506100b860048036038101906100b391906110e6565b61049c565b6040516100cc9897969594939291906111cb565b60405180910390f35b3480156100e157600080fd5b506100fc60048036038101906100f79190611257565b610718565b6040516101099190611342565b60405180910390f35b34801561011e57600080fd5b50610139600480360381019061013491906110e6565b6108b8565b005b34801561014757600080fd5b50610162600480360381019061015d91906110e6565b610b0e565b6040516101769897969594939291906111cb565b60405180910390f35b34801561018b57600080fd5b506101a660048036038101906101a19190611257565b610cb3565b6040516101b39190611342565b60405180910390f35b3480156101c857600080fd5b506101d1610e53565b6040516101de9190611364565b60405180910390f35b600073ffffffffffffffffffffffffffffffffffffffff168373ffffffffffffffffffffffffffffffffffffffff1603610256576040517f08c379a000000000000000000000000000000000000000000000000000000000815260040161024d906113cb565b60405180910390fd5b428111610298576040517f08c379a000000000000000000000000000000000000000000000000000000000815260040161028f90611437565b60405180910390fd5b600060015490506040518061010001604052808681526020013373ffffffffffffffffffffffffffffffffffffffff1681526020018573ffffffffffffffffffffffffffffffffffffffff16815260200184815260200183815260200134815260200160001515815260200142815250600080838152602001908152602001600020600082015181600001908161032f9190611663565b5060208201518160010160006101000a81548173ffffffffffffffffffffffffffffffffffffffff021916908373ffffffffffffffffffffffffffffffffffffffff16021790555060408201518160020160006101000a81548173ffffffffffffffffffffffffffffffffffffffff021916908373ffffffffffffffffffffffffffffffffffffffff16021790555060608201518160030190816103d39190611663565b506080820151816004015560a0820151816005015560c08201518160060160006101000a81548160ff02191690831515021790555060e082015181600701559050506001600081548092919061042890611764565b91905055508373ffffffffffffffffffffffffffffffffffffffff163373ffffffffffffffffffffffffffffffffffffffff16827ff8ff8ca56f4b186755a14ec1a5ebed5aba0a0c1d9321ff0530119a904882ad7e853460405161048d9291906117ac565b60405180910390a45050505050565b6060600080606060008060008060008060008b8152602001908152602001600020604051806101000160405290816000820180546104d990611486565b80601f016020809104026020016040519081016040528092919081815260200182805461050590611486565b80156105525780601f1061052757610100808354040283529160200191610552565b820191906000526020600020905b81548152906001019060200180831161053557829003601f168201915b505050505081526020016001820160009054906101000a900473ffffffffffffffffffffffffffffffffffffffff1673ffffffffffffffffffffffffffffffffffffffff1673ffffffffffffffffffffffffffffffffffffffff1681526020016002820160009054906101000a900473ffffffffffffffffffffffffffffffffffffffff1673ffffffffffffffffffffffffffffffffffffffff1673ffffffffffffffffffffffffffffffffffffffff16815260200160038201805461061790611486565b80601f016020809104026020016040519081016040528092919081815260200182805461064390611486565b80156106905780601f1061066557610100808354040283529160200191610690565b820191906000526020600020905b81548152906001019060200180831161067357829003601f168201915b5050505050815260200160048201548152602001600582015481526020016006820160009054906101000a900460ff161515151581526020016007820154815250509050806000015181602001518260400151836060015184608001518560a001518660c001518760e001519850985098509850985098509850985050919395975091939597565b60606000805b6001548110156107ac578373ffffffffffffffffffffffffffffffffffffffff1660008083815260200190815260200160002060010160009054906101000a900473ffffffffffffffffffffffffffffffffffffffff1673ffffffffffffffffffffffffffffffffffffffff160361079f57818061079b90611764565b9250505b808060010191505061071e565b5060008167ffffffffffffffff8111156107c9576107c8610e88565b5b6040519080825280602002602001820160405280156107f75781602001602082028036833780820191505090505b5090506000805b6001548110156108ac578573ffffffffffffffffffffffffffffffffffffffff1660008083815260200190815260200160002060010160009054906101000a900473ffffffffffffffffffffffffffffffffffffffff1673ffffffffffffffffffffffffffffffffffffffff160361089f5780838381518110610884576108836117d5565b5b602002602001018181525050818061089b90611764565b9250505b80806001019150506107fe565b50819350505050919050565b600080600083815260200190815260200160002090508060020160009054906101000a900473ffffffffffffffffffffffffffffffffffffffff1673ffffffffffffffffffffffffffffffffffffffff163373ffffffffffffffffffffffffffffffffffffffff1614610960576040517f08c379a000000000000000000000000000000000000000000000000000000000815260040161095790611850565b60405180910390fd5b80600401544210156109a7576040517f08c379a000000000000000000000000000000000000000000000000000000000815260040161099e906118bc565b60405180910390fd5b8060060160009054906101000a900460ff16156109f9576040517f08c379a00000000000000000000000000000000000000000000000000000000081526004016109f090611928565b60405180910390fd5b60018160060160006101000a81548160ff021916908315150217905550600081600501541115610a93578060020160009054906101000a900473ffffffffffffffffffffffffffffffffffffffff1673ffffffffffffffffffffffffffffffffffffffff166108fc82600501549081150290604051600060405180830381858888f19350505050158015610a91573d6000803e3d6000fd5b505b8060020160009054906101000a900473ffffffffffffffffffffffffffffffffffffffff1673ffffffffffffffffffffffffffffffffffffffff16827f2a6b5606a4c1289f92207865ee63ccb890e1e0b42abdfb3d11e6a032f4589a1a8360050154604051610b029190611364565b60405180910390a35050565b6000602052806000526040600020600091509050806000018054610b3190611486565b80601f0160208091040260200160405190810160405280929190818152602001828054610b5d90611486565b8015610baa5780601f10610b7f57610100808354040283529160200191610baa565b820191906000526020600020905b815481529060010190602001808311610b8d57829003601f168201915b5050505050908060010160009054906101000a900473ffffffffffffffffffffffffffffffffffffffff16908060020160009054906101000a900473ffffffffffffffffffffffffffffffffffffffff1690806003018054610c0b90611486565b80601f0160208091040260200160405190810160405280929190818152602001828054610c3790611486565b8015610c845780601f10610c5957610100808354040283529160200191610c84565b820191906000526020600020905b815481529060010190602001808311610c6757829003601f168201915b5050505050908060040154908060050154908060060160009054906101000a900460ff16908060070154905088565b60606000805b600154811015610d47578373ffffffffffffffffffffffffffffffffffffffff1660008083815260200190815260200160002060020160009054906101000a900473ffffffffffffffffffffffffffffffffffffffff1673ffffffffffffffffffffffffffffffffffffffff1603610d3a578180610d3690611764565b9250505b8080600101915050610cb9565b5060008167ffffffffffffffff811115610d6457610d63610e88565b5b604051908082528060200260200182016040528015610d925781602001602082028036833780820191505090505b5090506000805b600154811015610e47578573ffffffffffffffffffffffffffffffffffffffff1660008083815260200190815260200160002060020160009054906101000a900473ffffffffffffffffffffffffffffffffffffffff1673ffffffffffffffffffffffffffffffffffffffff1603610e3a5780838381518110610e1f57610e1e6117d5565b5b6020026020010181815250508180610e3690611764565b9250505b8080600101915050610d99565b50819350505050919050565b60015481565b6000604051905090565b600080fd5b600080fd5b600080fd5b600080fd5b6000601f19601f8301169050919050565b7f4e487b7100000000000000000000000000000000000000000000000000000000600052604160045260246000fd5b610ec082610e77565b810181811067ffffffffffffffff82111715610edf57610ede610e88565b5b80604052505050565b6000610ef2610e59565b9050610efe8282610eb7565b919050565b600067ffffffffffffffff821115610f1e57610f1d610e88565b5b610f2782610e77565b9050602081019050919050565b82818337600083830152505050565b6000610f56610f5184610f03565b610ee8565b905082815260208101848484011115610f7257610f71610e72565b5b610f7d848285610f34565b509392505050565b600082601f830112610f9a57610f99610e6d565b5b8135610faa848260208601610f43565b91505092915050565b600073ffffffffffffffffffffffffffffffffffffffff82169050919050565b6000610fde82610fb3565b9050919050565b610fee81610fd3565b8114610ff957600080fd5b50565b60008135905061100b81610fe5565b92915050565b6000819050919050565b61102481611011565b811461102f57600080fd5b50565b6000813590506110418161101b565b92915050565b6000806000806080858703121561106157611060610e63565b5b600085013567ffffffffffffffff81111561107f5761107e610e68565b5b61108b87828801610f85565b945050602061109c87828801610ffc565b935050604085013567ffffffffffffffff8111156110bd576110bc610e68565b5b6110c987828801610f85565b92505060606110da87828801611032565b91505092959194509250565b6000602082840312156110fc576110fb610e63565b5b600061110a84828501611032565b91505092915050565b600081519050919050565b600082825260208201905092915050565b60005b8381101561114d578082015181840152602081019050611132565b60008484015250505050565b600061116482611113565b61116e818561111e565b935061117e81856020860161112f565b61118781610e77565b840191505092915050565b61119b81610fd3565b82525050565b6111aa81611011565b82525050565b60008115159050919050565b6111c5816111b0565b82525050565b60006101008201905081810360008301526111e6818b611159565b90506111f5602083018a611192565b6112026040830189611192565b81810360608301526112148188611159565b905061122360808301876111a1565b61123060a08301866111a1565b61123d60c08301856111bc565b61124a60e08301846111a1565b9998505050505050505050565b60006020828403121561126d5761126c610e63565b5b600061127b84828501610ffc565b91505092915050565b600081519050919050565b600082825260208201905092915050565b6000819050602082019050919050565b6112b981611011565b82525050565b60006112cb83836112b0565b60208301905092915050565b6000602082019050919050565b60006112ef82611284565b6112f9818561128f565b9350611304836112a0565b8060005b8381101561133557815161131c88826112bf565b9750611327836112d7565b925050600181019050611308565b5085935050505092915050565b6000602082019050818103600083015261135c81846112e4565b905092915050565b600060208201905061137960008301846111a1565b92915050565b7f496e76616c69642062656e656669636961727920616464726573730000000000600082015250565b60006113b5601b8361111e565b91506113c08261137f565b602082019050919050565b600060208201905081810360008301526113e4816113a8565b9050919050565b7f446561646c696e65206d75737420626520696e20746865206675747572650000600082015250565b6000611421601e8361111e565b915061142c826113eb565b602082019050919050565b6000602082019050818103600083015261145081611414565b9050919050565b7f4e487b7100000000000000000000000000000000000000000000000000000000600052602260045260246000fd5b6000600282049050600182168061149e57607f821691505b6020821081036114b1576114b0611457565b5b50919050565b60008190508160005260206000209050919050565b60006020601f8301049050919050565b600082821b905092915050565b6000600883026115197fffffffffffffffffffffffffffffffffffffffffffffffffffffffffffffffff826114dc565b61152386836114dc565b95508019841693508086168417925050509392505050565b6000819050919050565b600061156061155b61155684611011565b61153b565b611011565b9050919050565b6000819050919050565b61157a83611545565b61158e61158682611567565b8484546114e9565b825550505050565b600090565b6115a3611596565b6115ae818484611571565b505050565b5b818110156115d2576115c760008261159b565b6001810190506115b4565b5050565b601f821115611617576115e8816114b7565b6115f1846114cc565b81016020851015611600578190505b61161461160c856114cc565b8301826115b3565b50505b505050565b600082821c905092915050565b600061163a6000198460080261161c565b1980831691505092915050565b60006116538383611629565b9150826002028217905092915050565b61166c82611113565b67ffffffffffffffff81111561168557611684610e88565b5b61168f8254611486565b61169a8282856115d6565b600060209050601f8311600181146116cd57600084156116bb578287015190505b6116c58582611647565b86555061172d565b601f1984166116db866114b7565b60005b82811015611703578489015182556001820191506020850194506020810190506116de565b86831015611720578489015161171c601f891682611629565b8355505b6001600288020188555050505b505050505050565b7f4e487b7100000000000000000000000000000000000000000000000000000000600052601160045260246000fd5b600061176f82611011565b91507fffffffffffffffffffffffffffffffffffffffffffffffffffffffffffffffff82036117a1576117a0611735565b5b600182019050919050565b60006040820190506117c160008301856111a1565b6117ce60208301846111a1565b9392505050565b7f4e487b7100000000000000000000000000000000000000000000000000000000600052603260045260246000fd5b7f4f6e6c792062656e65666963696172792063616e20636c61696d000000000000600082015250565b600061183a601a8361111e565b915061184582611804565b602082019050919050565b600060208201905081810360008301526118698161182d565b9050919050565b7f446561646c696e65206e6f742072656163686564207965740000000000000000600082015250565b60006118a660188361111e565b91506118b182611870565b602082019050919050565b600060208201905081810360008301526118d581611899565b9050919050565b7f54657374616d656e7420616c726561647920636c61696d656400000000000000600082015250565b600061191260198361111e565b915061191d826118dc565b602082019050919050565b6000602082019050818103600083015261194181611905565b905091905056fea264697066735822122075a09782f233cf425cd597aeb06beb5ae46254b02a0c67bf30655284d9d0d46f64736f6c634300081c0033","opcodes":"PUSH1 0x80 PUSH1 0x40 MSTORE CALLVALUE DUP1 ISZERO PUSH1 0xF JUMPI PUSH1 0x0 DUP1 REVERT JUMPDEST POP PUSH2 0x197E DUP1 PUSH2 0x1F PUSH1 0x0 CODECOPY PUSH1 0x0 RETURN INVALID PUSH1 0x80 PUSH1 0x40 MSTORE PUSH1 0x4 CALLDATASIZE LT PUSH2 0x70 JUMPI PUSH1 0x0 CALLDATALOAD PUSH1 0xE0 SHR DUP1 PUSH4 0x7FD78F2E GT PUSH2 0x4E JUMPI DUP1 PUSH4 0x7FD78F2E EQ PUSH2 0x112 JUMPI DUP1 PUSH4 0xD5DF76A3 EQ PUSH2 0x13B JUMPI DUP1 PUSH4 0xE33113C2 EQ PUSH2 0x17F JUMPI DUP1 PUSH4 0xF48DDDBF EQ PUSH2 0x1BC JUMPI PUSH2 0x70 JUMP JUMPDEST DUP1 PUSH4 0x2741852E EQ PUSH2 0x75 JUMPI DUP1 PUSH4 0x525A7D29 EQ PUSH2 0x91 JUMPI DUP1 PUSH4 0x71238D65 EQ PUSH2 0xD5 JUMPI JUMPDEST PUSH1 0x0 DUP1 REVERT JUMPDEST PUSH2 0x8F PUSH1 0x4 DUP1 CALLDATASIZE SUB DUP2 ADD SWAP1 PUSH2 0x8A SWAP2 SWAP1 PUSH2 0x1047 JUMP JUMPDEST PUSH2 0x1E7 JUMP JUMPDEST STOP JUMPDEST CALLVALUE DUP1 ISZERO PUSH2 0x9D JUMPI PUSH1 0x0 DUP1 REVERT JUMPDEST POP PUSH2 0xB8 PUSH1 0x4 DUP1 CALLDATASIZE SUB DUP2 ADD SWAP1 PUSH2 0xB3 SWAP2 SWAP1 PUSH2 0x10E6 JUMP JUMPDEST PUSH2 0x49C JUMP JUMPDEST PUSH1 0x40 MLOAD PUSH2 0xCC SWAP9 SWAP8 SWAP7 SWAP6 SWAP5 SWAP4 SWAP3 SWAP2 SWAP1 PUSH2 0x11CB JUMP JUMPDEST PUSH1 0x40 MLOAD DUP1 SWAP2 SUB SWAP1 RETURN JUMPDEST CALLVALUE DUP1 ISZERO PUSH2 0xE1 JUMPI PUSH1 0x0 DUP1 REVERT JUMPDEST POP PUSH2 0xFC PUSH1 0x4 DUP1 CALLDATASIZE SUB DUP2 ADD SWAP1 PUSH2 0xF7 SWAP2 SWAP1 PUSH2 0x1257 JUMP JUMPDEST PUSH2 0x718 JUMP JUMPDEST PUSH1 0x40 MLOAD PUSH2 0x109 SWAP2 SWAP1 PUSH2 0x1342 JUMP JUMPDEST PUSH1 0x40 MLOAD DUP1 SWAP2 SUB SWAP1 RETURN JUMPDEST CALLVALUE DUP1 ISZERO PUSH2 0x11E JUMPI PUSH1 0x0 DUP1 REVERT JUMPDEST POP PUSH2 0x139 PUSH1 0x4 DUP1 CALLDATASIZE SUB DUP2 ADD SWAP1 PUSH2 0x134 SWAP2 SWAP1 PUSH2 0x10E6 JUMP JUMPDEST PUSH2 0x8B8 JUMP JUMPDEST STOP JUMPDEST CALLVALUE DUP1 ISZERO PUSH2 0x147 JUMPI PUSH1 0x0 DUP1 REVERT JUMPDEST POP PUSH2 0x162 PUSH1 0x4 DUP1 CALLDATASIZE SUB DUP2 ADD SWAP1 PUSH2 0x15D SWAP2 SWAP1 PUSH2 0x10E6 JUMP JUMPDEST PUSH2 0xB0E JUMP JUMPDEST PUSH1 0x40 MLOAD PUSH2 0x176 SWAP9 SWAP8 SWAP7 SWAP6 SWAP5 SWAP4 SWAP3 SWAP2 SWAP1 PUSH2 0x11CB JUMP JUMPDEST PUSH1 0x40 MLOAD DUP1 SWAP2 SUB SWAP1 RETURN JUMPDEST CALLVALUE DUP1 ISZERO PUSH2 0x18B JUMPI PUSH1 0x0 DUP1 REVERT JUMPDEST POP PUSH2 0x1A6 PUSH1 0x4 DUP1 CALLDATASIZE SUB DUP2 ADD SWAP1 PUSH2 0x1A1 SWAP2 SWAP1 PUSH2 0x1257 JUMP JUMPDEST PUSH2 0xCB3 JUMP JUMPDEST PUSH1 0x40 MLOAD PUSH2 0x1B3 SWAP2 SWAP1 PUSH2 0x1342 JUMP JUMPDEST PUSH1 0x40 MLOAD DUP1 SWAP2 SUB SWAP1 RETURN JUMPDEST CALLVALUE DUP1 ISZERO PUSH2 0x1C8 JUMPI PUSH1 0x0 DUP1 REVERT JUMPDEST POP PUSH2 0x1D1 PUSH2 0xE53 JUMP JUMPDEST PUSH1 0x40 MLOAD PUSH2 0x1DE SWAP2 SWAP1 PUSH2 0x1364 JUMP JUMPDEST PUSH1 0x40 MLOAD DUP1 SWAP2 SUB SWAP1 RETURN JUMPDEST PUSH1 0x0 PUSH20 0xFFFFFFFFFFFFFFFFFFFFFFFFFFFFFFFFFFFFFFFF AND DUP4 PUSH20 0xFFFFFFFFFFFFFFFFFFFFFFFFFFFFFFFFFFFFFFFF AND SUB PUSH2 0x256 JUMPI PUSH1 0x40 MLOAD PUSH32 0x8C379A000000000000000000000000000000000000000000000000000000000 DUP2 MSTORE PUSH1 0x4 ADD PUSH2 0x24D SWAP1 PUSH2 0x13CB JUMP JUMPDEST PUSH1 0x40 MLOAD DUP1 SWAP2 SUB SWAP1 REVERT JUMPDEST TIMESTAMP DUP2 GT PUSH2 0x298 JUMPI PUSH1 0x40 MLOAD PUSH32 0x8C379A000000000000000000000000000000000000000000000000000000000 DUP2 MSTORE PUSH1 0x4 ADD PUSH2 0x28F SWAP1 PUSH2 0x1437 JUMP JUMPDEST PUSH1 0x40 MLOAD DUP1 SWAP2 SUB SWAP1 REVERT JUMPDEST PUSH1 0x0 PUSH1 0x1 SLOAD SWAP1 POP PUSH1 0x40 MLOAD DUP1 PUSH2 0x100 ADD PUSH1 0x40 MSTORE DUP1 DUP7 DUP2 MSTORE PUSH1 0x20 ADD CALLER PUSH20 0xFFFFFFFFFFFFFFFFFFFFFFFFFFFFFFFFFFFFFFFF AND DUP2 MSTORE PUSH1 0x20 ADD DUP6 PUSH20 0xFFFFFFFFFFFFFFFFFFFFFFFFFFFFFFFFFFFFFFFF AND DUP2 MSTORE PUSH1 0x20 ADD DUP5 DUP2 MSTORE PUSH1 0x20 ADD DUP4 DUP2 MSTORE PUSH1 0x20 ADD CALLVALUE DUP2 MSTORE PUSH1 0x20 ADD PUSH1 0x0 ISZERO ISZERO DUP2 MSTORE PUSH1 0x20 ADD TIMESTAMP DUP2 MSTORE POP PUSH1 0x0 DUP1 DUP4 DUP2 MSTORE PUSH1 0x20 ADD SWAP1 DUP2 MSTORE PUSH1 0x20 ADD PUSH1 0x0 KECCAK256 PUSH1 0x0 DUP3 ADD MLOAD DUP2 PUSH1 0x0 ADD SWAP1 DUP2 PUSH2 0x32F SWAP2 SWAP1 PUSH2 0x1663 JUMP JUMPDEST POP PUSH1 0x20 DUP3 ADD MLOAD DUP2 PUSH1 0x1 ADD PUSH1 0x0 PUSH2 0x100 EXP DUP2 SLOAD DUP2 PUSH20 0xFFFFFFFFFFFFFFFFFFFFFFFFFFFFFFFFFFFFFFFF MUL NOT AND SWAP1 DUP4 PUSH20 0xFFFFFFFFFFFFFFFFFFFFFFFFFFFFFFFFFFFFFFFF AND MUL OR SWAP1 SSTORE POP PUSH1 0x40 DUP3 ADD MLOAD DUP2 PUSH1 0x2 ADD PUSH1 0x0 PUSH2 0x100 EXP DUP2 SLOAD DUP2 PUSH20 0xFFFFFFFFFFFFFFFFFFFFFFFFFFFFFFFFFFFFFFFF MUL NOT AND SWAP1 DUP4 PUSH20 0xFFFFFFFFFFFFFFFFFFFFFFFFFFFFFFFFFFFFFFFF AND MUL OR SWAP1 SSTORE POP PUSH1 0x60 DUP3 ADD MLOAD DUP2 PUSH1 0x3 ADD SWAP1 DUP2 PUSH2 0x3D3 SWAP2 SWAP1 PUSH2 0x1663 JUMP JUMPDEST POP PUSH1 0x80 DUP3 ADD MLOAD DUP2 PUSH1 0x4 ADD SSTORE PUSH1 0xA0 DUP3 ADD MLOAD DUP2 PUSH1 0x5 ADD SSTORE PUSH1 0xC0 DUP3 ADD MLOAD DUP2 PUSH1 0x6 ADD PUSH1 0x0 PUSH2 0x100 EXP DUP2 SLOAD DUP2 PUSH1 0xFF MUL NOT AND SWAP1 DUP4 ISZERO ISZERO MUL OR SWAP1 SSTORE POP PUSH1 0xE0 DUP3 ADD MLOAD DUP2 PUSH1 0x7 ADD SSTORE SWAP1 POP POP PUSH1 0x1 PUSH1 0x0 DUP2 SLOAD DUP1 SWAP3 SWAP2 SWAP1 PUSH2 0x428 SWAP1 PUSH2 0x1764 JUMP JUMPDEST SWAP2 SWAP1 POP SSTORE POP DUP4 PUSH20 0xFFFFFFFFFFFFFFFFFFFFFFFFFFFFFFFFFFFFFFFF AND CALLER PUSH20 0xFFFFFFFFFFFFFFFFFFFFFFFFFFFFFFFFFFFFFFFF AND DUP3 PUSH32 0xF8FF8CA56F4B186755A14EC1A5EBED5ABA0A0C1D9321FF0530119A904882AD7E DUP6 CALLVALUE PUSH1 0x40 MLOAD PUSH2 0x48D SWAP3 SWAP2 SWAP1 PUSH2 0x17AC JUMP JUMPDEST PUSH1 0x40 MLOAD DUP1 SWAP2 SUB SWAP1 LOG4 POP POP POP POP POP JUMP JUMPDEST PUSH1 0x60 PUSH1 0x0 DUP1 PUSH1 0x60 PUSH1 0x0 DUP1 PUSH1 0x0 DUP1 PUSH1 0x0 DUP1 PUSH1 0x0 DUP12 DUP2 MSTORE PUSH1 0x20 ADD SWAP1 DUP2 MSTORE PUSH1 0x20 ADD PUSH1 0x0 KECCAK256 PUSH1 0x40 MLOAD DUP1 PUSH2 0x100 ADD PUSH1 0x40 MSTORE SWAP1 DUP2 PUSH1 0x0 DUP3 ADD DUP1 SLOAD PUSH2 0x4D9 SWAP1 PUSH2 0x1486 JUMP JUMPDEST DUP1 PUSH1 0x1F ADD PUSH1 0x20 DUP1 SWAP2 DIV MUL PUSH1 0x20 ADD PUSH1 0x40 MLOAD SWAP1 DUP2 ADD PUSH1 0x40 MSTORE DUP1 SWAP3 SWAP2 SWAP1 DUP2 DUP2 MSTORE PUSH1 0x20 ADD DUP3 DUP1 SLOAD PUSH2 0x505 SWAP1 PUSH2 0x1486 JUMP JUMPDEST DUP1 ISZERO PUSH2 0x552 JUMPI DUP1 PUSH1 0x1F LT PUSH2 0x527 JUMPI PUSH2 0x100 DUP1 DUP4 SLOAD DIV MUL DUP4 MSTORE SWAP2 PUSH1 0x20 ADD SWAP2 PUSH2 0x552 JUMP JUMPDEST DUP3 ADD SWAP2 SWAP1 PUSH1 0x0 MSTORE PUSH1 0x20 PUSH1 0x0 KECCAK256 SWAP1 JUMPDEST DUP2 SLOAD DUP2 MSTORE SWAP1 PUSH1 0x1 ADD SWAP1 PUSH1 0x20 ADD DUP1 DUP4 GT PUSH2 0x535 JUMPI DUP3 SWAP1 SUB PUSH1 0x1F AND DUP3 ADD SWAP2 JUMPDEST POP POP POP POP POP DUP2 MSTORE PUSH1 0x20 ADD PUSH1 0x1 DUP3 ADD PUSH1 0x0 SWAP1 SLOAD SWAP1 PUSH2 0x100 EXP SWAP1 DIV PUSH20 0xFFFFFFFFFFFFFFFFFFFFFFFFFFFFFFFFFFFFFFFF AND PUSH20 0xFFFFFFFFFFFFFFFFFFFFFFFFFFFFFFFFFFFFFFFF AND PUSH20 0xFFFFFFFFFFFFFFFFFFFFFFFFFFFFFFFFFFFFFFFF AND DUP2 MSTORE PUSH1 0x20 ADD PUSH1 0x2 DUP3 ADD PUSH1 0x0 SWAP1 SLOAD SWAP1 PUSH2 0x100 EXP SWAP1 DIV PUSH20 0xFFFFFFFFFFFFFFFFFFFFFFFFFFFFFFFFFFFFFFFF AND PUSH20 0xFFFFFFFFFFFFFFFFFFFFFFFFFFFFFFFFFFFFFFFF AND PUSH20 0xFFFFFFFFFFFFFFFFFFFFFFFFFFFFFFFFFFFFFFFF AND DUP2 MSTORE PUSH1 0x20 ADD PUSH1 0x3 DUP3 ADD DUP1 SLOAD PUSH2 0x617 SWAP1 PUSH2 0x1486 JUMP JUMPDEST DUP1 PUSH1 0x1F ADD PUSH1 0x20 DUP1 SWAP2 DIV MUL PUSH1 0x20 ADD PUSH1 0x40 MLOAD SWAP1 DUP2 ADD PUSH1 0x40 MSTORE DUP1 SWAP3 SWAP2 SWAP1 DUP2 DUP2 MSTORE PUSH1 0x20 ADD DUP3 DUP1 SLOAD PUSH2 0x643 SWAP1 PUSH2 0x1486 JUMP JUMPDEST DUP1 ISZERO PUSH2 0x690 JUMPI DUP1 PUSH1 0x1F LT PUSH2 0x665 JUMPI PUSH2 0x100 DUP1 DUP4 SLOAD DIV MUL DUP4 MSTORE SWAP2 PUSH1 0x20 ADD SWAP2 PUSH2 0x690 JUMP JUMPDEST DUP3 ADD SWAP2 SWAP1 PUSH1 0x0 MSTORE PUSH1 0x20 PUSH1 0x0 KECCAK256 SWAP1 JUMPDEST DUP2 SLOAD DUP2 MSTORE SWAP1 PUSH1 0x1 ADD SWAP1 PUSH1 0x20 ADD DUP1 DUP4 GT PUSH2 0x673 JUMPI DUP3 SWAP1 SUB PUSH1 0x1F AND DUP3 ADD SWAP2 JUMPDEST POP POP POP POP POP DUP2 MSTORE PUSH1 0x20 ADD PUSH1 0x4 DUP3 ADD SLOAD DUP2 MSTORE PUSH1 0x20 ADD PUSH1 0x5 DUP3 ADD SLOAD DUP2 MSTORE PUSH1 0x20 ADD PUSH1 0x6 DUP3 ADD PUSH1 0x0 SWAP1 SLOAD SWAP1 PUSH2 0x100 EXP SWAP1 DIV PUSH1 0xFF AND ISZERO ISZERO ISZERO ISZERO DUP2 MSTORE PUSH1 0x20 ADD PUSH1 0x7 DUP3 ADD SLOAD DUP2 MSTORE POP POP SWAP1 POP DUP1 PUSH1 0x0 ADD MLOAD DUP2 PUSH1 0x20 ADD MLOAD DUP3 PUSH1 0x40 ADD MLOAD DUP4 PUSH1 0x60 ADD MLOAD DUP5 PUSH1 0x80 ADD MLOAD DUP6 PUSH1 0xA0 ADD MLOAD DUP7 PUSH1 0xC0 ADD MLOAD DUP8 PUSH1 0xE0 ADD MLOAD SWAP9 POP SWAP9 POP SWAP9 POP SWAP9 POP SWAP9 POP SWAP9 POP SWAP9 POP SWAP9 POP POP SWAP2 SWAP4 SWAP6 SWAP8 POP SWAP2 SWAP4 SWAP6 SWAP8 JUMP JUMPDEST PUSH1 0x60 PUSH1 0x0 DUP1 JUMPDEST PUSH1 0x1 SLOAD DUP2 LT ISZERO PUSH2 0x7AC JUMPI DUP4 PUSH20 0xFFFFFFFFFFFFFFFFFFFFFFFFFFFFFFFFFFFFFFFF AND PUSH1 0x0 DUP1 DUP4 DUP2 MSTORE PUSH1 0x20 ADD SWAP1 DUP2 MSTORE PUSH1 0x20 ADD PUSH1 0x0 KECCAK256 PUSH1 0x1 ADD PUSH1 0x0 SWAP1 SLOAD SWAP1 PUSH2 0x100 EXP SWAP1 DIV PUSH20 0xFFFFFFFFFFFFFFFFFFFFFFFFFFFFFFFFFFFFFFFF AND PUSH20 0xFFFFFFFFFFFFFFFFFFFFFFFFFFFFFFFFFFFFFFFF AND SUB PUSH2 0x79F JUMPI DUP2 DUP1 PUSH2 0x79B SWAP1 PUSH2 0x1764 JUMP JUMPDEST SWAP3 POP POP JUMPDEST DUP1 DUP1 PUSH1 0x1 ADD SWAP2 POP POP PUSH2 0x71E JUMP JUMPDEST POP PUSH1 0x0 DUP2 PUSH8 0xFFFFFFFFFFFFFFFF DUP2 GT ISZERO PUSH2 0x7C9 JUMPI PUSH2 0x7C8 PUSH2 0xE88 JUMP JUMPDEST JUMPDEST PUSH1 0x40 MLOAD SWAP1 DUP1 DUP3 MSTORE DUP1 PUSH1 0x20 MUL PUSH1 0x20 ADD DUP3 ADD PUSH1 0x40 MSTORE DUP1 ISZERO PUSH2 0x7F7 JUMPI DUP2 PUSH1 0x20 ADD PUSH1 0x20 DUP3 MUL DUP1 CALLDATASIZE DUP4 CALLDATACOPY DUP1 DUP3 ADD SWAP2 POP POP SWAP1 POP JUMPDEST POP SWAP1 POP PUSH1 0x0 DUP1 JUMPDEST PUSH1 0x1 SLOAD DUP2 LT ISZERO PUSH2 0x8AC JUMPI DUP6 PUSH20 0xFFFFFFFFFFFFFFFFFFFFFFFFFFFFFFFFFFFFFFFF AND PUSH1 0x0 DUP1 DUP4 DUP2 MSTORE PUSH1 0x20 ADD SWAP1 DUP2 MSTORE PUSH1 0x20 ADD PUSH1 0x0 KECCAK256 PUSH1 0x1 ADD PUSH1 0x0 SWAP1 SLOAD SWAP1 PUSH2 0x100 EXP SWAP1 DIV PUSH20 0xFFFFFFFFFFFFFFFFFFFFFFFFFFFFFFFFFFFFFFFF AND PUSH20 0xFFFFFFFFFFFFFFFFFFFFFFFFFFFFFFFFFFFFFFFF AND SUB PUSH2 0x89F JUMPI DUP1 DUP4 DUP4 DUP2 MLOAD DUP2 LT PUSH2 0x884 JUMPI PUSH2 0x883 PUSH2 0x17D5 JUMP JUMPDEST JUMPDEST PUSH1 0x20 MUL PUSH1 0x20 ADD ADD DUP2 DUP2 MSTORE POP POP DUP2 DUP1 PUSH2 0x89B SWAP1 PUSH2 0x1764 JUMP JUMPDEST SWAP3 POP POP JUMPDEST DUP1 DUP1 PUSH1 0x1 ADD SWAP2 POP POP PUSH2 0x7FE JUMP JUMPDEST POP DUP2 SWAP4 POP POP POP POP SWAP2 SWAP1 POP JUMP JUMPDEST PUSH1 0x0 DUP1 PUSH1 0x0 DUP4 DUP2 MSTORE PUSH1 0x20 ADD SWAP1 DUP2 MSTORE PUSH1 0x20 ADD PUSH1 0x0 KECCAK256 SWAP1 POP DUP1 PUSH1 0x2 ADD PUSH1 0x0 SWAP1 SLOAD SWAP1 PUSH2 0x100 EXP SWAP1 DIV PUSH20 0xFFFFFFFFFFFFFFFFFFFFFFFFFFFFFFFFFFFFFFFF AND PUSH20 0xFFFFFFFFFFFFFFFFFFFFFFFFFFFFFFFFFFFFFFFF AND CALLER PUSH20 0xFFFFFFFFFFFFFFFFFFFFFFFFFFFFFFFFFFFFFFFF AND EQ PUSH2 0x960 JUMPI PUSH1 0x40 MLOAD PUSH32 0x8C379A000000000000000000000000000000000000000000000000000000000 DUP2 MSTORE PUSH1 0x4 ADD PUSH2 0x957 SWAP1 PUSH2 0x1850 JUMP JUMPDEST PUSH1 0x40 MLOAD DUP1 SWAP2 SUB SWAP1 REVERT JUMPDEST DUP1 PUSH1 0x4 ADD SLOAD TIMESTAMP LT ISZERO PUSH2 0x9A7 JUMPI PUSH1 0x40 MLOAD PUSH32 0x8C379A000000000000000000000000000000000000000000000000000000000 DUP2 MSTORE PUSH1 0x4 ADD PUSH2 0x99E SWAP1 PUSH2 0x18BC JUMP JUMPDEST PUSH1 0x40 MLOAD DUP1 SWAP2 SUB SWAP1 REVERT JUMPDEST DUP1 PUSH1 0x6 ADD PUSH1 0x0 SWAP1 SLOAD SWAP1 PUSH2 0x100 EXP SWAP1 DIV PUSH1 0xFF AND ISZERO PUSH2 0x9F9 JUMPI PUSH1 0x40 MLOAD PUSH32 0x8C379A000000000000000000000000000000000000000000000000000000000 DUP2 MSTORE PUSH1 0x4 ADD PUSH2 0x9F0 SWAP1 PUSH2 0x1928 JUMP JUMPDEST PUSH1 0x40 MLOAD DUP1 SWAP2 SUB SWAP1 REVERT JUMPDEST PUSH1 0x1 DUP2 PUSH1 0x6 ADD PUSH1 0x0 PUSH2 0x100 EXP DUP2 SLOAD DUP2 PUSH1 0xFF MUL NOT AND SWAP1 DUP4 ISZERO ISZERO MUL OR SWAP1 SSTORE POP PUSH1 0x0 DUP2 PUSH1 0x5 ADD SLOAD GT ISZERO PUSH2 0xA93 JUMPI DUP1 PUSH1 0x2 ADD PUSH1 0x0 SWAP1 SLOAD SWAP1 PUSH2 0x100 EXP SWAP1 DIV PUSH20 0xFFFFFFFFFFFFFFFFFFFFFFFFFFFFFFFFFFFFFFFF AND PUSH20 0xFFFFFFFFFFFFFFFFFFFFFFFFFFFFFFFFFFFFFFFF AND PUSH2 0x8FC DUP3 PUSH1 0x5 ADD SLOAD SWAP1 DUP2 ISZERO MUL SWAP1 PUSH1 0x40 MLOAD PUSH1 0x0 PUSH1 0x40 MLOAD DUP1 DUP4 SUB DUP2 DUP6 DUP9 DUP9 CALL SWAP4 POP POP POP POP ISZERO DUP1 ISZERO PUSH2 0xA91 JUMPI RETURNDATASIZE PUSH1 0x0 DUP1 RETURNDATACOPY RETURNDATASIZE PUSH1 0x0 REVERT JUMPDEST POP JUMPDEST DUP1 PUSH1 0x2 ADD PUSH1 0x0 SWAP1 SLOAD SWAP1 PUSH2 0x100 EXP SWAP1 DIV PUSH20 0xFFFFFFFFFFFFFFFFFFFFFFFFFFFFFFFFFFFFFFFF AND PUSH20 0xFFFFFFFFFFFFFFFFFFFFFFFFFFFFFFFFFFFFFFFF AND DUP3 PUSH32 0x2A6B5606A4C1289F92207865EE63CCB890E1E0B42ABDFB3D11E6A032F4589A1A DUP4 PUSH1 0x5 ADD SLOAD PUSH1 0x40 MLOAD PUSH2 0xB02 SWAP2 SWAP1 PUSH2 0x1364 JUMP JUMPDEST PUSH1 0x40 MLOAD DUP1 SWAP2 SUB SWAP1 LOG3 POP POP JUMP JUMPDEST PUSH1 0x0 PUSH1 0x20 MSTORE DUP1 PUSH1 0x0 MSTORE PUSH1 0x40 PUSH1 0x0 KECCAK256 PUSH1 0x0 SWAP2 POP SWAP1 POP DUP1 PUSH1 0x0 ADD DUP1 SLOAD PUSH2 0xB31 SWAP1 PUSH2 0x1486 JUMP JUMPDEST DUP1 PUSH1 0x1F ADD PUSH1 0x20 DUP1 SWAP2 DIV MUL PUSH1 0x20 ADD PUSH1 0x40 MLOAD SWAP1 DUP2 ADD PUSH1 0x40 MSTORE DUP1 SWAP3 SWAP2 SWAP1 DUP2 DUP2 MSTORE PUSH1 0x20 ADD DUP3 DUP1 SLOAD PUSH2 0xB5D SWAP1 PUSH2 0x1486 JUMP JUMPDEST DUP1 ISZERO PUSH2 0xBAA JUMPI DUP1 PUSH1 0x1F LT PUSH2 0xB7F JUMPI PUSH2 0x100 DUP1 DUP4 SLOAD DIV MUL DUP4 MSTORE SWAP2 PUSH1 0x20 ADD SWAP2 PUSH2 0xBAA JUMP JUMPDEST DUP3 ADD SWAP2 SWAP1 PUSH1 0x0 MSTORE PUSH1 0x20 PUSH1 0x0 KECCAK256 SWAP1 JUMPDEST DUP2 SLOAD DUP2 MSTORE SWAP1 PUSH1 0x1 ADD SWAP1 PUSH1 0x20 ADD DUP1 DUP4 GT PUSH2 0xB8D JUMPI DUP3 SWAP1 SUB PUSH1 0x1F AND DUP3 ADD SWAP2 JUMPDEST POP POP POP POP POP SWAP1 DUP1 PUSH1 0x1 ADD PUSH1 0x0 SWAP1 SLOAD SWAP1 PUSH2 0x100 EXP SWAP1 DIV PUSH20 0xFFFFFFFFFFFFFFFFFFFFFFFFFFFFFFFFFFFFFFFF AND SWAP1 DUP1 PUSH1 0x2 ADD PUSH1 0x0 SWAP1 SLOAD SWAP1 PUSH2 0x100 EXP SWAP1 DIV PUSH20 0xFFFFFFFFFFFFFFFFFFFFFFFFFFFFFFFFFFFFFFFF AND SWAP1 DUP1 PUSH1 0x3 ADD DUP1 SLOAD PUSH2 0xC0B SWAP1 PUSH2 0x1486 JUMP JUMPDEST DUP1 PUSH1 0x1F ADD PUSH1 0x20 DUP1 SWAP2 DIV MUL PUSH1 0x20 ADD PUSH1 0x40 MLOAD SWAP1 DUP2 ADD PUSH1 0x40 MSTORE DUP1 SWAP3 SWAP2 SWAP1 DUP2 DUP2 MSTORE PUSH1 0x20 ADD DUP3 DUP1 SLOAD PUSH2 0xC37 SWAP1 PUSH2 0x1486 JUMP JUMPDEST DUP1 ISZERO PUSH2 0xC84 JUMPI DUP1 PUSH1 0x1F LT PUSH2 0xC59 JUMPI PUSH2 0x100 DUP1 DUP4 SLOAD DIV MUL DUP4 MSTORE SWAP2 PUSH1 0x20 ADD SWAP2 PUSH2 0xC84 JUMP JUMPDEST DUP3 ADD SWAP2 SWAP1 PUSH1 0x0 MSTORE PUSH1 0x20 PUSH1 0x0 KECCAK256 SWAP1 JUMPDEST DUP2 SLOAD DUP2 MSTORE SWAP1 PUSH1 0x1 ADD SWAP1 PUSH1 0x20 ADD DUP1 DUP4 GT PUSH2 0xC67 JUMPI DUP3 SWAP1 SUB PUSH1 0x1F AND DUP3 ADD SWAP2 JUMPDEST POP POP POP POP POP SWAP1 DUP1 PUSH1 0x4 ADD SLOAD SWAP1 DUP1 PUSH1 0x5 ADD SLOAD SWAP1 DUP1 PUSH1 0x6 ADD PUSH1 0x0 SWAP1 SLOAD SWAP1 PUSH2 0x100 EXP SWAP1 DIV PUSH1 0xFF AND SWAP1 DUP1 PUSH1 0x7 ADD SLOAD SWAP1 POP DUP9 JUMP JUMPDEST PUSH1 0x60 PUSH1 0x0 DUP1 JUMPDEST PUSH1 0x1 SLOAD DUP2 LT ISZERO PUSH2 0xD47 JUMPI DUP4 PUSH20 0xFFFFFFFFFFFFFFFFFFFFFFFFFFFFFFFFFFFFFFFF AND PUSH1 0x0 DUP1 DUP4 DUP2 MSTORE PUSH1 0x20 ADD SWAP1 DUP2 MSTORE PUSH1 0x20 ADD PUSH1 0x0 KECCAK256 PUSH1 0x2 ADD PUSH1 0x0 SWAP1 SLOAD SWAP1 PUSH2 0x100 EXP SWAP1 DIV PUSH20 0xFFFFFFFFFFFFFFFFFFFFFFFFFFFFFFFFFFFFFFFF AND PUSH20 0xFFFFFFFFFFFFFFFFFFFFFFFFFFFFFFFFFFFFFFFF AND SUB PUSH2 0xD3A JUMPI DUP2 DUP1 PUSH2 0xD36 SWAP1 PUSH2 0x1764 JUMP JUMPDEST SWAP3 POP POP JUMPDEST DUP1 DUP1 PUSH1 0x1 ADD SWAP2 POP POP PUSH2 0xCB9 JUMP JUMPDEST POP PUSH1 0x0 DUP2 PUSH8 0xFFFFFFFFFFFFFFFF DUP2 GT ISZERO PUSH2 0xD64 JUMPI PUSH2 0xD63 PUSH2 0xE88 JUMP JUMPDEST JUMPDEST PUSH1 0x40 MLOAD SWAP1 DUP1 DUP3 MSTORE DUP1 PUSH1 0x20 MUL PUSH1 0x20 ADD DUP3 ADD PUSH1 0x40 MSTORE DUP1 ISZERO PUSH2 0xD92 JUMPI DUP2 PUSH1 0x20 ADD PUSH1 0x20 DUP3 MUL DUP1 CALLDATASIZE DUP4 CALLDATACOPY DUP1 DUP3 ADD SWAP2 POP POP SWAP1 POP JUMPDEST POP SWAP1 POP PUSH1 0x0 DUP1 JUMPDEST PUSH1 0x1 SLOAD DUP2 LT ISZERO PUSH2 0xE47 JUMPI DUP6 PUSH20 0xFFFFFFFFFFFFFFFFFFFFFFFFFFFFFFFFFFFFFFFF AND PUSH1 0x0 DUP1 DUP4 DUP2 MSTORE PUSH1 0x20 ADD SWAP1 DUP2 MSTORE PUSH1 0x20 ADD PUSH1 0x0 KECCAK256 PUSH1 0x2 ADD PUSH1 0x0 SWAP1 SLOAD SWAP1 PUSH2 0x100 EXP SWAP1 DIV PUSH20 0xFFFFFFFFFFFFFFFFFFFFFFFFFFFFFFFFFFFFFFFF AND PUSH20 0xFFFFFFFFFFFFFFFFFFFFFFFFFFFFFFFFFFFFFFFF AND SUB PUSH2 0xE3A JUMPI DUP1 DUP4 DUP4 DUP2 MLOAD DUP2 LT PUSH2 0xE1F JUMPI PUSH2 0xE1E PUSH2 0x17D5 JUMP JUMPDEST JUMPDEST PUSH1 0x20 MUL PUSH1 0x20 ADD ADD DUP2 DUP2 MSTORE POP POP DUP2 DUP1 PUSH2 0xE36 SWAP1 PUSH2 0x1764 JUMP JUMPDEST SWAP3 POP POP JUMPDEST DUP1 DUP1 PUSH1 0x1 ADD SWAP2 POP POP PUSH2 0xD99 JUMP JUMPDEST POP DUP2 SWAP4 POP POP POP POP SWAP2 SWAP1 POP JUMP JUMPDEST PUSH1 0x1 SLOAD DUP2 JUMP JUMPDEST PUSH1 0x0 PUSH1 0x40 MLOAD SWAP1 POP SWAP1 JUMP JUMPDEST PUSH1 0x0 DUP1 REVERT JUMPDEST PUSH1 0x0 DUP1 REVERT JUMPDEST PUSH1 0x0 DUP1 REVERT JUMPDEST PUSH1 0x0 DUP1 REVERT JUMPDEST PUSH1 0x0 PUSH1 0x1F NOT PUSH1 0x1F DUP4 ADD AND SWAP1 POP SWAP2 SWAP1 POP JUMP JUMPDEST PUSH32 0x4E487B7100000000000000000000000000000000000000000000000000000000 PUSH1 0x0 MSTORE PUSH1 0x41 PUSH1 0x4 MSTORE PUSH1 0x24 PUSH1 0x0 REVERT JUMPDEST PUSH2 0xEC0 DUP3 PUSH2 0xE77 JUMP JUMPDEST DUP2 ADD DUP2 DUP2 LT PUSH8 0xFFFFFFFFFFFFFFFF DUP3 GT OR ISZERO PUSH2 0xEDF JUMPI PUSH2 0xEDE PUSH2 0xE88 JUMP JUMPDEST JUMPDEST DUP1 PUSH1 0x40 MSTORE POP POP POP JUMP JUMPDEST PUSH1 0x0 PUSH2 0xEF2 PUSH2 0xE59 JUMP JUMPDEST SWAP1 POP PUSH2 0xEFE DUP3 DUP3 PUSH2 0xEB7 JUMP JUMPDEST SWAP2 SWAP1 POP JUMP JUMPDEST PUSH1 0x0 PUSH8 0xFFFFFFFFFFFFFFFF DUP3 GT ISZERO PUSH2 0xF1E JUMPI PUSH2 0xF1D PUSH2 0xE88 JUMP JUMPDEST JUMPDEST PUSH2 0xF27 DUP3 PUSH2 0xE77 JUMP JUMPDEST SWAP1 POP PUSH1 0x20 DUP2 ADD SWAP1 POP SWAP2 SWAP1 POP JUMP JUMPDEST DUP3 DUP2 DUP4 CALLDATACOPY PUSH1 0x0 DUP4 DUP4 ADD MSTORE POP POP POP JUMP JUMPDEST PUSH1 0x0 PUSH2 0xF56 PUSH2 0xF51 DUP5 PUSH2 0xF03 JUMP JUMPDEST PUSH2 0xEE8 JUMP JUMPDEST SWAP1 POP DUP3 DUP2 MSTORE PUSH1 0x20 DUP2 ADD DUP5 DUP5 DUP5 ADD GT ISZERO PUSH2 0xF72 JUMPI PUSH2 0xF71 PUSH2 0xE72 JUMP JUMPDEST JUMPDEST PUSH2 0xF7D DUP5 DUP3 DUP6 PUSH2 0xF34 JUMP JUMPDEST POP SWAP4 SWAP3 POP POP POP JUMP JUMPDEST PUSH1 0x0 DUP3 PUSH1 0x1F DUP4 ADD SLT PUSH2 0xF9A JUMPI PUSH2 0xF99 PUSH2 0xE6D JUMP JUMPDEST JUMPDEST DUP2 CALLDATALOAD PUSH2 0xFAA DUP5 DUP3 PUSH1 0x20 DUP7 ADD PUSH2 0xF43 JUMP JUMPDEST SWAP2 POP POP SWAP3 SWAP2 POP POP JUMP JUMPDEST PUSH1 0x0 PUSH20 0xFFFFFFFFFFFFFFFFFFFFFFFFFFFFFFFFFFFFFFFF DUP3 AND SWAP1 POP SWAP2 SWAP1 POP JUMP JUMPDEST PUSH1 0x0 PUSH2 0xFDE DUP3 PUSH2 0xFB3 JUMP JUMPDEST SWAP1 POP SWAP2 SWAP1 POP JUMP JUMPDEST PUSH2 0xFEE DUP2 PUSH2 0xFD3 JUMP JUMPDEST DUP2 EQ PUSH2 0xFF9 JUMPI PUSH1 0x0 DUP1 REVERT JUMPDEST POP JUMP JUMPDEST PUSH1 0x0 DUP2 CALLDATALOAD SWAP1 POP PUSH2 0x100B DUP2 PUSH2 0xFE5 JUMP JUMPDEST SWAP3 SWAP2 POP POP JUMP JUMPDEST PUSH1 0x0 DUP2 SWAP1 POP SWAP2 SWAP1 POP JUMP JUMPDEST PUSH2 0x1024 DUP2 PUSH2 0x1011 JUMP JUMPDEST DUP2 EQ PUSH2 0x102F JUMPI PUSH1 0x0 DUP1 REVERT JUMPDEST POP JUMP JUMPDEST PUSH1 0x0 DUP2 CALLDATALOAD SWAP1 POP PUSH2 0x1041 DUP2 PUSH2 0x101B JUMP JUMPDEST SWAP3 SWAP2 POP POP JUMP JUMPDEST PUSH1 0x0 DUP1 PUSH1 0x0 DUP1 PUSH1 0x80 DUP6 DUP8 SUB SLT ISZERO PUSH2 0x1061 JUMPI PUSH2 0x1060 PUSH2 0xE63 JUMP JUMPDEST JUMPDEST PUSH1 0x0 DUP6 ADD CALLDATALOAD PUSH8 0xFFFFFFFFFFFFFFFF DUP2 GT ISZERO PUSH2 0x107F JUMPI PUSH2 0x107E PUSH2 0xE68 JUMP JUMPDEST JUMPDEST PUSH2 0x108B DUP8 DUP3 DUP9 ADD PUSH2 0xF85 JUMP JUMPDEST SWAP5 POP POP PUSH1 0x20 PUSH2 0x109C DUP8 DUP3 DUP9 ADD PUSH2 0xFFC JUMP JUMPDEST SWAP4 POP POP PUSH1 0x40 DUP6 ADD CALLDATALOAD PUSH8 0xFFFFFFFFFFFFFFFF DUP2 GT ISZERO PUSH2 0x10BD JUMPI PUSH2 0x10BC PUSH2 0xE68 JUMP JUMPDEST JUMPDEST PUSH2 0x10C9 DUP8 DUP3 DUP9 ADD PUSH2 0xF85 JUMP JUMPDEST SWAP3 POP POP PUSH1 0x60 PUSH2 0x10DA DUP8 DUP3 DUP9 ADD PUSH2 0x1032 JUMP JUMPDEST SWAP2 POP POP SWAP3 SWAP6 SWAP2 SWAP5 POP SWAP3 POP JUMP JUMPDEST PUSH1 0x0 PUSH1 0x20 DUP3 DUP5 SUB SLT ISZERO PUSH2 0x10FC JUMPI PUSH2 0x10FB PUSH2 0xE63 JUMP JUMPDEST JUMPDEST PUSH1 0x0 PUSH2 0x110A DUP5 DUP3 DUP6 ADD PUSH2 0x1032 JUMP JUMPDEST SWAP2 POP POP SWAP3 SWAP2 POP POP JUMP JUMPDEST PUSH1 0x0 DUP2 MLOAD SWAP1 POP SWAP2 SWAP1 POP JUMP JUMPDEST PUSH1 0x0 DUP3 DUP3 MSTORE PUSH1 0x20 DUP3 ADD SWAP1 POP SWAP3 SWAP2 POP POP JUMP JUMPDEST PUSH1 0x0 JUMPDEST DUP4 DUP2 LT ISZERO PUSH2 0x114D JUMPI DUP1 DUP3 ADD MLOAD DUP2 DUP5 ADD MSTORE PUSH1 0x20 DUP2 ADD SWAP1 POP PUSH2 0x1132 JUMP JUMPDEST PUSH1 0x0 DUP5 DUP5 ADD MSTORE POP POP POP POP JUMP JUMPDEST PUSH1 0x0 PUSH2 0x1164 DUP3 PUSH2 0x1113 JUMP JUMPDEST PUSH2 0x116E DUP2 DUP6 PUSH2 0x111E JUMP JUMPDEST SWAP4 POP PUSH2 0x117E DUP2 DUP6 PUSH1 0x20 DUP7 ADD PUSH2 0x112F JUMP JUMPDEST PUSH2 0x1187 DUP2 PUSH2 0xE77 JUMP JUMPDEST DUP5 ADD SWAP2 POP POP SWAP3 SWAP2 POP POP JUMP JUMPDEST PUSH2 0x119B DUP2 PUSH2 0xFD3 JUMP JUMPDEST DUP3 MSTORE POP POP JUMP JUMPDEST PUSH2 0x11AA DUP2 PUSH2 0x1011 JUMP JUMPDEST DUP3 MSTORE POP POP JUMP JUMPDEST PUSH1 0x0 DUP2 ISZERO ISZERO SWAP1 POP SWAP2 SWAP1 POP JUMP JUMPDEST PUSH2 0x11C5 DUP2 PUSH2 0x11B0 JUMP JUMPDEST DUP3 MSTORE POP POP JUMP JUMPDEST PUSH1 0x0 PUSH2 0x100 DUP3 ADD SWAP1 POP DUP2 DUP2 SUB PUSH1 0x0 DUP4 ADD MSTORE PUSH2 0x11E6 DUP2 DUP12 PUSH2 0x1159 JUMP JUMPDEST SWAP1 POP PUSH2 0x11F5 PUSH1 0x20 DUP4 ADD DUP11 PUSH2 0x1192 JUMP JUMPDEST PUSH2 0x1202 PUSH1 0x40 DUP4 ADD DUP10 PUSH2 0x1192 JUMP JUMPDEST DUP2 DUP2 SUB PUSH1 0x60 DUP4 ADD MSTORE PUSH2 0x1214 DUP2 DUP9 PUSH2 0x1159 JUMP JUMPDEST SWAP1 POP PUSH2 0x1223 PUSH1 0x80 DUP4 ADD DUP8 PUSH2 0x11A1 JUMP JUMPDEST PUSH2 0x1230 PUSH1 0xA0 DUP4 ADD DUP7 PUSH2 0x11A1 JUMP JUMPDEST PUSH2 0x123D PUSH1 0xC0 DUP4 ADD DUP6 PUSH2 0x11BC JUMP JUMPDEST PUSH2 0x124A PUSH1 0xE0 DUP4 ADD DUP5 PUSH2 0x11A1 JUMP JUMPDEST SWAP10 SWAP9 POP POP POP POP POP POP POP POP POP JUMP JUMPDEST PUSH1 0x0 PUSH1 0x20 DUP3 DUP5 SUB SLT ISZERO PUSH2 0x126D JUMPI PUSH2 0x126C PUSH2 0xE63 JUMP JUMPDEST JUMPDEST PUSH1 0x0 PUSH2 0x127B DUP5 DUP3 DUP6 ADD PUSH2 0xFFC JUMP JUMPDEST SWAP2 POP POP SWAP3 SWAP2 POP POP JUMP JUMPDEST PUSH1 0x0 DUP2 MLOAD SWAP1 POP SWAP2 SWAP1 POP JUMP JUMPDEST PUSH1 0x0 DUP3 DUP3 MSTORE PUSH1 0x20 DUP3 ADD SWAP1 POP SWAP3 SWAP2 POP POP JUMP JUMPDEST PUSH1 0x0 DUP2 SWAP1 POP PUSH1 0x20 DUP3 ADD SWAP1 POP SWAP2 SWAP1 POP JUMP JUMPDEST PUSH2 0x12B9 DUP2 PUSH2 0x1011 JUMP JUMPDEST DUP3 MSTORE POP POP JUMP JUMPDEST PUSH1 0x0 PUSH2 0x12CB DUP4 DUP4 PUSH2 0x12B0 JUMP JUMPDEST PUSH1 0x20 DUP4 ADD SWAP1 POP SWAP3 SWAP2 POP POP JUMP JUMPDEST PUSH1 0x0 PUSH1 0x20 DUP3 ADD SWAP1 POP SWAP2 SWAP1 POP JUMP JUMPDEST PUSH1 0x0 PUSH2 0x12EF DUP3 PUSH2 0x1284 JUMP JUMPDEST PUSH2 0x12F9 DUP2 DUP6 PUSH2 0x128F JUMP JUMPDEST SWAP4 POP PUSH2 0x1304 DUP4 PUSH2 0x12A0 JUMP JUMPDEST DUP1 PUSH1 0x0 JUMPDEST DUP4 DUP2 LT ISZERO PUSH2 0x1335 JUMPI DUP2 MLOAD PUSH2 0x131C DUP9 DUP3 PUSH2 0x12BF JUMP JUMPDEST SWAP8 POP PUSH2 0x1327 DUP4 PUSH2 0x12D7 JUMP JUMPDEST SWAP3 POP POP PUSH1 0x1 DUP2 ADD SWAP1 POP PUSH2 0x1308 JUMP JUMPDEST POP DUP6 SWAP4 POP POP POP POP SWAP3 SWAP2 POP POP JUMP JUMPDEST PUSH1 0x0 PUSH1 0x20 DUP3 ADD SWAP1 POP DUP2 DUP2 SUB PUSH1 0x0 DUP4 ADD MSTORE PUSH2 0x135C DUP2 DUP5 PUSH2 0x12E4 JUMP JUMPDEST SWAP1 POP SWAP3 SWAP2 POP POP JUMP JUMPDEST PUSH1 0x0 PUSH1 0x20 DUP3 ADD SWAP1 POP PUSH2 0x1379 PUSH1 0x0 DUP4 ADD DUP5 PUSH2 0x11A1 JUMP JUMPDEST SWAP3 SWAP2 POP POP JUMP JUMPDEST PUSH32 0x496E76616C69642062656E656669636961727920616464726573730000000000 PUSH1 0x0 DUP3 ADD MSTORE POP JUMP JUMPDEST PUSH1 0x0 PUSH2 0x13B5 PUSH1 0x1B DUP4 PUSH2 0x111E JUMP JUMPDEST SWAP2 POP PUSH2 0x13C0 DUP3 PUSH2 0x137F JUMP JUMPDEST PUSH1 0x20 DUP3 ADD SWAP1 POP SWAP2 SWAP1 POP JUMP JUMPDEST PUSH1 0x0 PUSH1 0x20 DUP3 ADD SWAP1 POP DUP2 DUP2 SUB PUSH1 0x0 DUP4 ADD MSTORE PUSH2 0x13E4 DUP2 PUSH2 0x13A8 JUMP JUMPDEST SWAP1 POP SWAP2 SWAP1 POP JUMP JUMPDEST PUSH32 0x446561646C696E65206D75737420626520696E20746865206675747572650000 PUSH1 0x0 DUP3 ADD MSTORE POP JUMP JUMPDEST PUSH1 0x0 PUSH2 0x1421 PUSH1 0x1E DUP4 PUSH2 0x111E JUMP JUMPDEST SWAP2 POP PUSH2 0x142C DUP3 PUSH2 0x13EB JUMP JUMPDEST PUSH1 0x20 DUP3 ADD SWAP1 POP SWAP2 SWAP1 POP JUMP JUMPDEST PUSH1 0x0 PUSH1 0x20 DUP3 ADD SWAP1 POP DUP2 DUP2 SUB PUSH1 0x0 DUP4 ADD MSTORE PUSH2 0x1450 DUP2 PUSH2 0x1414 JUMP JUMPDEST SWAP1 POP SWAP2 SWAP1 POP JUMP JUMPDEST PUSH32 0x4E487B7100000000000000000000000000000000000000000000000000000000 PUSH1 0x0 MSTORE PUSH1 0x22 PUSH1 0x4 MSTORE PUSH1 0x24 PUSH1 0x0 REVERT JUMPDEST PUSH1 0x0 PUSH1 0x2 DUP3 DIV SWAP1 POP PUSH1 0x1 DUP3 AND DUP1 PUSH2 0x149E JUMPI PUSH1 0x7F DUP3 AND SWAP2 POP JUMPDEST PUSH1 0x20 DUP3 LT DUP2 SUB PUSH2 0x14B1 JUMPI PUSH2 0x14B0 PUSH2 0x1457 JUMP JUMPDEST JUMPDEST POP SWAP2 SWAP1 POP JUMP JUMPDEST PUSH1 0x0 DUP2 SWAP1 POP DUP2 PUSH1 0x0 MSTORE PUSH1 0x20 PUSH1 0x0 KECCAK256 SWAP1 POP SWAP2 SWAP1 POP JUMP JUMPDEST PUSH1 0x0 PUSH1 0x20 PUSH1 0x1F DUP4 ADD DIV SWAP1 POP SWAP2 SWAP1 POP JUMP JUMPDEST PUSH1 0x0 DUP3 DUP3 SHL SWAP1 POP SWAP3 SWAP2 POP POP JUMP JUMPDEST PUSH1 0x0 PUSH1 0x8 DUP4 MUL PUSH2 0x1519 PUSH32 0xFFFFFFFFFFFFFFFFFFFFFFFFFFFFFFFFFFFFFFFFFFFFFFFFFFFFFFFFFFFFFFFF DUP3 PUSH2 0x14DC JUMP JUMPDEST PUSH2 0x1523 DUP7 DUP4 PUSH2 0x14DC JUMP JUMPDEST SWAP6 POP DUP1 NOT DUP5 AND SWAP4 POP DUP1 DUP7 AND DUP5 OR SWAP3 POP POP POP SWAP4 SWAP3 POP POP POP JUMP JUMPDEST PUSH1 0x0 DUP2 SWAP1 POP SWAP2 SWAP1 POP JUMP JUMPDEST PUSH1 0x0 PUSH2 0x1560 PUSH2 0x155B PUSH2 0x1556 DUP5 PUSH2 0x1011 JUMP JUMPDEST PUSH2 0x153B JUMP JUMPDEST PUSH2 0x1011 JUMP JUMPDEST SWAP1 POP SWAP2 SWAP1 POP JUMP JUMPDEST PUSH1 0x0 DUP2 SWAP1 POP SWAP2 SWAP1 POP JUMP JUMPDEST PUSH2 0x157A DUP4 PUSH2 0x1545 JUMP JUMPDEST PUSH2 0x158E PUSH2 0x1586 DUP3 PUSH2 0x1567 JUMP JUMPDEST DUP5 DUP5 SLOAD PUSH2 0x14E9 JUMP JUMPDEST DUP3 SSTORE POP POP POP POP JUMP JUMPDEST PUSH1 0x0 SWAP1 JUMP JUMPDEST PUSH2 0x15A3 PUSH2 0x1596 JUMP JUMPDEST PUSH2 0x15AE DUP2 DUP5 DUP5 PUSH2 0x1571 JUMP JUMPDEST POP POP POP JUMP JUMPDEST JUMPDEST DUP2 DUP2 LT ISZERO PUSH2 0x15D2 JUMPI PUSH2 0x15C7 PUSH1 0x0 DUP3 PUSH2 0x159B JUMP JUMPDEST PUSH1 0x1 DUP2 ADD SWAP1 POP PUSH2 0x15B4 JUMP JUMPDEST POP POP JUMP JUMPDEST PUSH1 0x1F DUP3 GT ISZERO PUSH2 0x1617 JUMPI PUSH2 0x15E8 DUP2 PUSH2 0x14B7 JUMP JUMPDEST PUSH2 0x15F1 DUP5 PUSH2 0x14CC JUMP JUMPDEST DUP2 ADD PUSH1 0x20 DUP6 LT ISZERO PUSH2 0x1600 JUMPI DUP2 SWAP1 POP JUMPDEST PUSH2 0x1614 PUSH2 0x160C DUP6 PUSH2 0x14CC JUMP JUMPDEST DUP4 ADD DUP3 PUSH2 0x15B3 JUMP JUMPDEST POP POP JUMPDEST POP POP POP JUMP JUMPDEST PUSH1 0x0 DUP3 DUP3 SHR SWAP1 POP SWAP3 SWAP2 POP POP JUMP JUMPDEST PUSH1 0x0 PUSH2 0x163A PUSH1 0x0 NOT DUP5 PUSH1 0x8 MUL PUSH2 0x161C JUMP JUMPDEST NOT DUP1 DUP4 AND SWAP2 POP POP SWAP3 SWAP2 POP POP JUMP JUMPDEST PUSH1 0x0 PUSH2 0x1653 DUP4 DUP4 PUSH2 0x1629 JUMP JUMPDEST SWAP2 POP DUP3 PUSH1 0x2 MUL DUP3 OR SWAP1 POP SWAP3 SWAP2 POP POP JUMP JUMPDEST PUSH2 0x166C DUP3 PUSH2 0x1113 JUMP JUMPDEST PUSH8 0xFFFFFFFFFFFFFFFF DUP2 GT ISZERO PUSH2 0x1685 JUMPI PUSH2 0x1684 PUSH2 0xE88 JUMP JUMPDEST JUMPDEST PUSH2 0x168F DUP3 SLOAD PUSH2 0x1486 JUMP JUMPDEST PUSH2 0x169A DUP3 DUP3 DUP6 PUSH2 0x15D6 JUMP JUMPDEST PUSH1 0x0 PUSH1 0x20 SWAP1 POP PUSH1 0x1F DUP4 GT PUSH1 0x1 DUP2 EQ PUSH2 0x16CD JUMPI PUSH1 0x0 DUP5 ISZERO PUSH2 0x16BB JUMPI DUP3 DUP8 ADD MLOAD SWAP1 POP JUMPDEST PUSH2 0x16C5 DUP6 DUP3 PUSH2 0x1647 JUMP JUMPDEST DUP7 SSTORE POP PUSH2 0x172D JUMP JUMPDEST PUSH1 0x1F NOT DUP5 AND PUSH2 0x16DB DUP7 PUSH2 0x14B7 JUMP JUMPDEST PUSH1 0x0 JUMPDEST DUP3 DUP2 LT ISZERO PUSH2 0x1703 JUMPI DUP5 DUP10 ADD MLOAD DUP3 SSTORE PUSH1 0x1 DUP3 ADD SWAP2 POP PUSH1 0x20 DUP6 ADD SWAP5 POP PUSH1 0x20 DUP2 ADD SWAP1 POP PUSH2 0x16DE JUMP JUMPDEST DUP7 DUP4 LT ISZERO PUSH2 0x1720 JUMPI DUP5 DUP10 ADD MLOAD PUSH2 0x171C PUSH1 0x1F DUP10 AND DUP3 PUSH2 0x1629 JUMP JUMPDEST DUP4 SSTORE POP JUMPDEST PUSH1 0x1 PUSH1 0x2 DUP9 MUL ADD DUP9 SSTORE POP POP POP JUMPDEST POP POP POP POP POP POP JUMP JUMPDEST PUSH32 0x4E487B7100000000000000000000000000000000000000000000000000000000 PUSH1 0x0 MSTORE PUSH1 0x11 PUSH1 0x4 MSTORE PUSH1 0x24 PUSH1 0x0 REVERT JUMPDEST PUSH1 0x0 PUSH2 0x176F DUP3 PUSH2 0x1011 JUMP JUMPDEST SWAP2 POP PUSH32 0xFFFFFFFFFFFFFFFFFFFFFFFFFFFFFFFFFFFFFFFFFFFFFFFFFFFFFFFFFFFFFFFF DUP3 SUB PUSH2 0x17A1 JUMPI PUSH2 0x17A0 PUSH2 0x1735 JUMP JUMPDEST JUMPDEST PUSH1 0x1 DUP3 ADD SWAP1 POP SWAP2 SWAP1 POP JUMP JUMPDEST PUSH1 0x0 PUSH1 0x40 DUP3 ADD SWAP1 POP PUSH2 0x17C1 PUSH1 0x0 DUP4 ADD DUP6 PUSH2 0x11A1 JUMP JUMPDEST PUSH2 0x17CE PUSH1 0x20 DUP4 ADD DUP5 PUSH2 0x11A1 JUMP JUMPDEST SWAP4 SWAP3 POP POP POP JUMP JUMPDEST PUSH32 0x4E487B7100000000000000000000000000000000000000000000000000000000 PUSH1 0x0 MSTORE PUSH1 0x32 PUSH1 0x4 MSTORE PUSH1 0x24 PUSH1 0x0 REVERT JUMPDEST PUSH32 0x4F6E6C792062656E65666963696172792063616E20636C61696D000000000000 PUSH1 0x0 DUP3 ADD MSTORE POP JUMP JUMPDEST PUSH1 0x0 PUSH2 0x183A PUSH1 0x1A DUP4 PUSH2 0x111E JUMP JUMPDEST SWAP2 POP PUSH2 0x1845 DUP3 PUSH2 0x1804 JUMP JUMPDEST PUSH1 0x20 DUP3 ADD SWAP1 POP SWAP2 SWAP1 POP JUMP JUMPDEST PUSH1 0x0 PUSH1 0x20 DUP3 ADD SWAP1 POP DUP2 DUP2 SUB PUSH1 0x0 DUP4 ADD MSTORE PUSH2 0x1869 DUP2 PUSH2 0x182D JUMP JUMPDEST SWAP1 POP SWAP2 SWAP1 POP JUMP JUMPDEST PUSH32 0x446561646C696E65206E6F742072656163686564207965740000000000000000 PUSH1 0x0 DUP3 ADD MSTORE POP JUMP JUMPDEST PUSH1 0x0 PUSH2 0x18A6 PUSH1 0x18 DUP4 PUSH2 0x111E JUMP JUMPDEST SWAP2 POP PUSH2 0x18B1 DUP3 PUSH2 0x1870 JUMP JUMPDEST PUSH1 0x20 DUP3 ADD SWAP1 POP SWAP2 SWAP1 POP JUMP JUMPDEST PUSH1 0x0 PUSH1 0x20 DUP3 ADD SWAP1 POP DUP2 DUP2 SUB PUSH1 0x0 DUP4 ADD MSTORE PUSH2 0x18D5 DUP2 PUSH2 0x1899 JUMP JUMPDEST SWAP1 POP SWAP2 SWAP1 POP JUMP JUMPDEST PUSH32 0x54657374616D656E7420616C726561647920636C61696D656400000000000000 PUSH1 0x0 DUP3 ADD MSTORE POP JUMP JUMPDEST PUSH1 0x0 PUSH2 0x1912 PUSH1 0x19 DUP4 PUSH2 0x111E JUMP JUMPDEST SWAP2 POP PUSH2 0x191D DUP3 PUSH2 0x18DC JUMP JUMPDEST PUSH1 0x20 DUP3 ADD SWAP1 POP SWAP2 SWAP1 POP JUMP JUMPDEST PUSH1 0x0 PUSH1 0x20 DUP3 ADD SWAP1 POP DUP2 DUP2 SUB PUSH1 0x0 DUP4 ADD MSTORE PUSH2 0x1941 DUP2 PUSH2 0x1905 JUMP JUMPDEST SWAP1 POP SWAP2 SWAP1 POP JUMP INVALID LOG2 PUSH5 0x6970667358 0x22 SLT KECCAK256 PUSH22 0xA09782F233CF425CD597AEB06BEB5AE46254B02A0C67 0xBF ADDRESS PUSH6 0x5284D9D0D46F PUSH5 0x736F6C6343 STOP ADDMOD SHR STOP CALLER "},"methodIdentifiers":{"claimTestament(uint256)":"7fd78f2e","createTestament(string,address,string,uint256)":"2741852e","getTestamentDetails(uint256)":"525a7d29","getTestamentsByBeneficiary(address)":"e33113c2","getTestamentsByCreator(address)":"71238d65","testaments(uint256)":"d5df76a3","totalTestaments()":"f48dddbf"}}}}}