{
  "_format": "hh-sol-artifact-1",
  "contractName": "Heredity",
  "sourceName": "contracts/Heredity.sol",
  "abi": [
    {
      "anonymous": false,
      "inputs": [
        {
          "indexed": true,
          "internalType": "uint256",
          "name": "id",
          "type": "uint256"
        },
        {
          "indexed": true,
          "internalType": "address",
          "name": "beneficiary",
          "type": "address"
        },
        {
          "indexed": false,
          "internalType": "uint256",
          "name": "amount",
          "type": "uint256"
        }
      ],
      "name": "TestamentClaimed",
      "type": "event"
    },
    {
      "anonymous": false,
      "inputs": [
        {
          "indexed": true,
          "internalType": "uint256",
          "name": "id",
          "type": "uint256"
        },
        {
          "indexed": true,
          "internalType": "address",
          "name": "creator",
          "type": "address"
        },
        {
          "indexed": true,
          "internalType": "address",
          "name": "beneficiary",
          "type": "address"
        },
        {
          "indexed": false,
          "internalType": "uint256",
          "name": "deadline",
          "type": "uint256"
        },
        {
          "indexed": false,
          "internalType": "uint256",
          "name": "amount",
          "type": "uint256"
        }
      ],
      "name": "TestamentCreated",
      "type": "event"
    },
    {
      "inputs": [
        {
          "internalType": "uint256",
          "name": "_testamentId",
          "type": "uint256"
        }
      ],
      "name": "claimTestament",
      "outputs": [],
      "stateMutability": "nonpayable",
      "type": "function"
    },
    {
      "inputs": [
        {
          "internalType": "string",
          "name": "_name",
          "type": "string"
        },
        {
          "internalType": "address",
          "name": "_beneficiary",
          "type": "address"
        },
        {
          "internalType": "string",
          "name": "_encryptedData",
          "type": "string"
        },
        {
          "internalType": "uint256",
          "name": "_deadline",
          "type": "uint256"
        }
      ],
      "name": "createTestament",
      "outputs": [],
      "stateMutability": "payable",
      "type": "function"
    },
    {
      "inputs": [
        {
          "internalType": "uint256",
          "name": "_testamentId",
          "type": "uint256"
        }
      ],
      "name": "getTestamentDetails",
      "outputs": [
        {
          "internalType": "string",
          "name": "name",
          "type": "string"
        },
        {
          "internalType": "address",
          "name": "creator",
          "type": "address"
        },
        {
          "internalType": "address",
          "name": "beneficiary",
          "type": "address"
        },
        {
          "internalType": "string",
          "name": "encryptedData",
          "type": "string"
        },
        {
          "internalType": "uint256",
          "name": "deadline",
          "type": "uint256"
        },
        {
          "internalType": "uint256",
          "name": "amount",
          "type": "uint256"
        },
        {
          "internalType": "bool",
          "name": "claimed",
          "type": "bool"
        },
        {
          "internalType": "uint256",
          "name": "createdAt",
          "type": "uint256"
        }
      ],
      "stateMutability": "view",
      "type": "function"
    },
    {
      "inputs": [
        {
          "internalType": "address",
          "name": "_beneficiary",
          "type": "address"
        }
      ],
      "name": "getTestamentsByBeneficiary",
      "outputs": [
        {
          "internalType": "uint256[]",
          "name": "",
          "type": "uint256[]"
        }
      ],
      "stateMutability": "view",
      "type": "function"
    },
    {
      "inputs": [
        {
          "internalType": "address",
          "name": "_creator",
          "type": "address"
        }
      ],
      "name": "getTestamentsByCreator",
      "outputs": [
        {
          "internalType": "uint256[]",
          "name": "",
          "type": "uint256[]"
        }
      ],
      "stateMutability": "view",
      "type": "function"
    },
    {
      "inputs": [
        {
          "internalType": "uint256",
          "name": "",
          "type": "uint256"
        }
      ],
      "name": "testaments",
      "outputs": [
        {
          "internalType": "string",
          "name": "name",
          "type": "string"
        },
        {
          "internalType": "address",
          "name": "creator",
          "type": "address"
        },
        {
          "internalType": "address",
          "name": "beneficiary",
          "type": "address"
        },
        {
          "internalType": "string",
          "name": "encryptedData",
          "type": "string"
        },
        {
          "internalType": "uint256",
          "name": "deadline",
          "type": "uint256"
        },
        {
          "internalType": "uint256",
          "name": "amount",
          "type": "uint256"
        },
        {
          "internalType": "bool",
          "name": "claimed",
          "type": "bool"
        },
        {
          "internalType": "uint256",
          "name": "createdAt",
          "type": "uint256"
        }
      ],
      "stateMutability": "view",
      "type": "function"
    },
    {
      "inputs": [],
      "name": "totalTestaments",
      "outputs": [
        {
          "internalType": "uint256",
          "name": "",
          "type": "uint256"
        }
      ],
      "stateMutability": "view",
      "type": "function"
    }
  ],
  "bytecode": "0x6080604052348015600f57600080fd5b5061197e8061001f6000396000f3fe6080604052600436106100705760003560e01c80637fd78f2e1161004e5780637fd78f2e14610112578063d5df76a31461013b578063e33113c21461017f578063f48dddbf146101bc57610070565b80632741852e14610075578063525a7d291461009157806371238d65146100d5575b600080fd5b61008f600480360381019061008a9190611047565b6101e7565b005b34801561009d57600080fd5b506100b860048036038101906100b391906110e6565b61049c565b6040516100cc9897969594939291906111cb565b60405180910390f35b3480156100e157600080fd5b506100fc60048036038101906100f79190611257565b610718565b6040516101099190611342565b60405180910390f35b34801561011e57600080fd5b50610139600480360381019061013491906110e6565b6108b8565b005b34801561014757600080fd5b50610162600480360381019061015d91906110e6565b610b0e565b6040516101769897969594939291906111cb565b60405180910390f35b34801561018b57600080fd5b506101a660048036038101906101a19190611257565b610cb3565b6040516101b39190611342565b60405180910390f35b3480156101c857600080fd5b506101d1610e53565b6040516101de9190611364565b60405180910390f35b600073ffffffffffffffffffffffffffffffffffffffff168373ffffffffffffffffffffffffffffffffffffffff1603610256576040517f08c379a000000000000000000000000000000000000000000000000000000000815260040161024d906113cb565b60405180910390fd5b428111610298576040517f08c379a000000000000000000000000000000000000000000000000000000000815260040161028f90611437565b60405180910390fd5b600060015490506040518061010001604052808681526020013373ffffffffffffffffffffffffffffffffffffffff1681526020018573ffffffffffffffffffffffffffffffffffffffff16815260200184815260200183815260200134815260200160001515815260200142815250600080838152602001908152602001600020600082015181600001908161032f9190611663565b5060208201518160010160006101000a81548173ffffffffffffffffffffffffffffffffffffffff021916908373ffffffffffffffffffffffffffffffffffffffff16021790555060408201518160020160006101000a81548173ffffffffffffffffffffffffffffffffffffffff021916908373ffffffffffffffffffffffffffffffffffffffff16021790555060608201518160030190816103d39190611663565b506080820151816004015560a0820151816005015560c08201518160060160006101000a81548160ff02191690831515021790555060e082015181600701559050506001600081548092919061042890611764565b91905055508373ffffffffffffffffffffffffffffffffffffffff163373ffffffffffffffffffffffffffffffffffffffff16827ff8ff8ca56f4b186755a14ec1a5ebed5aba0a0c1d9321ff0530119a904882ad7e853460405161048d9291906117ac565b60405180910390a45050505050565b6060600080606060008060008060008060008b8152602001908152602001600020604051806101000160405290816000820180546104d990611486565b80601f016020809104026020016040519081016040528092919081815260200182805461050590611486565b80156105525780601f1061052757610100808354040283529160200191610552565b820191906000526020600020905b81548152906001019060200180831161053557829003601f168201915b505050505081526020016001820160009054906101000a900473ffffffffffffffffffffffffffffffffffffffff1673ffffffffffffffffffffffffffffffffffffffff1673ffffffffffffffffffffffffffffffffffffffff1681526020016002820160009054906101000a900473ffffffffffffffffffffffffffffffffffffffff1673ffffffffffffffffffffffffffffffffffffffff1673ffffffffffffffffffffffffffffffffffffffff16815260200160038201805461061790611486565b80601f016020809104026020016040519081016040528092919081815260200182805461064390611486565b80156106905780601f1061066557610100808354040283529160200191610690565b820191906000526020600020905b81548152906001019060200180831161067357829003601f168201915b5050505050815260200160048201548152602001600582015481526020016006820160009054906101000a900460ff161515151581526020016007820154815250509050806000015181602001518260400151836060015184608001518560a001518660c001518760e001519850985098509850985098509850985050919395975091939597565b60606000805b6001548110156107ac578373ffffffffffffffffffffffffffffffffffffffff1660008083815260200190815260200160002060010160009054906101000a900473ffffffffffffffffffffffffffffffffffffffff1673ffffffffffffffffffffffffffffffffffffffff160361079f57818061079b90611764565b9250505b808060010191505061071e565b5060008167ffffffffffffffff8111156107c9576107c8610e88565b5b6040519080825280602002602001820160405280156107f75781602001602082028036833780820191505090505b5090506000805b6001548110156108ac578573ffffffffffffffffffffffffffffffffffffffff1660008083815260200190815260200160002060010160009054906101000a900473ffffffffffffffffffffffffffffffffffffffff1673ffffffffffffffffffffffffffffffffffffffff160361089f5780838381518110610884576108836117d5565b5b602002602001018181525050818061089b90611764565b9250505b80806001019150506107fe565b50819350505050919050565b600080600083815260200190815260200160002090508060020160009054906101000a900473ffffffffffffffffffffffffffffffffffffffff1673ffffffffffffffffffffffffffffffffffffffff163373ffffffffffffffffffffffffffffffffffffffff1614610960576040517f08c379a000000000000000000000000000000000000000000000000000000000815260040161095790611850565b60405180910390fd5b80600401544210156109a7576040517f08c379a000000000000000000000000000000000000000000000000000000000815260040161099e906118bc565b60405180910390fd5b8060060160009054906101000a900460ff16156109f9576040517f08c379a00000000000000000000000000000000000000000000000000000000081526004016109f090611928565b60405180910390fd5b60018160060160006101000a81548160ff021916908315150217905550600081600501541115610a93578060020160009054906101000a900473ffffffffffffffffffffffffffffffffffffffff1673ffffffffffffffffffffffffffffffffffffffff166108fc82600501549081150290604051600060405180830381858888f19350505050158015610a91573d6000803e3d6000fd5b505b8060020160009054906101000a900473ffffffffffffffffffffffffffffffffffffffff1673ffffffffffffffffffffffffffffffffffffffff16827f2a6b5606a4c1289f92207865ee63ccb890e1e0b42abdfb3d11e6a032f4589a1a8360050154604051610b029190611364565b60405180910390a35050565b6000602052806000526040600020600091509050806000018054610b3190611486565b80601f0160208091040260200160405190810160405280929190818152602001828054610b5d90611486565b8015610baa5780601f10610b7f57610100808354040283529160200191610baa565b820191906000526020600020905b815481529060010190602001808311610b8d57829003601f168201915b5050505050908060010160009054906101000a900473ffffffffffffffffffffffffffffffffffffffff16908060020160009054906101000a900473ffffffffffffffffffffffffffffffffffffffff1690806003018054610c0b90611486565b80601f0160208091040260200160405190810160405280929190818152602001828054610c3790611486565b8015610c845780601f10610c5957610100808354040283529160200191610c84565b820191906000526020600020905b815481529060010190602001808311610c6757829003601f168201915b5050505050908060040154908060050154908060060160009054906101000a900460ff16908060070154905088565b60606000805b600154811015610d47578373ffffffffffffffffffffffffffffffffffffffff1660008083815260200190815260200160002060020160009054906101000a900473ffffffffffffffffffffffffffffffffffffffff1673ffffffffffffffffffffffffffffffffffffffff1603610d3a578180610d3690611764565b9250505b8080600101915050610cb9565b5060008167ffffffffffffffff811115610d6457610d63610e88565b5b604051908082528060200260200182016040528015610d925781602001602082028036833780820191505090505b5090506000805b600154811015610e47578573ffffffffffffffffffffffffffffffffffffffff1660008083815260200190815260200160002060020160009054906101000a900473ffffffffffffffffffffffffffffffffffffffff1673ffffffffffffffffffffffffffffffffffffffff1603610e3a5780838381518110610e1f57610e1e6117d5565b5b6020026020010181815250508180610e3690611764565b9250505b8080600101915050610d99565b50819350505050919050565b60015481565b6000604051905090565b600080fd5b600080fd5b600080fd5b600080fd5b6000601f19601f8301169050919050565b7f4e487b7100000000000000000000000000000000000000000000000000000000600052604160045260246000fd5b610ec082610e77565b810181811067ffffffffffffffff82111715610edf57610ede610e88565b5b80604052505050565b6000610ef2610e59565b9050610efe8282610eb7565b919050565b600067ffffffffffffffff821115610f1e57610f1d610e88565b5b610f2782610e77565b9050602081019050919050565b82818337600083830152505050565b6000610f56610f5184610f03565b610ee8565b905082815260208101848484011115610f7257610f71610e72565b5b610f7d848285610f34565b509392505050565b600082601f830112610f9a57610f99610e6d565b5b8135610faa848260208601610f43565b91505092915050565b600073ffffffffffffffffffffffffffffffffffffffff82169050919050565b6000610fde82610fb3565b9050919050565b610fee81610fd3565b8114610ff957600080fd5b50565b60008135905061100b81610fe5565b92915050565b6000819050919050565b61102481611011565b811461102f57600080fd5b50565b6000813590506110418161101b565b92915050565b6000806000806080858703121561106157611060610e63565b5b600085013567ffffffffffffffff81111561107f5761107e610e68565b5b61108b87828801610f85565b945050602061109c87828801610ffc565b935050604085013567ffffffffffffffff8111156110bd576110bc610e68565b5b6110c987828801610f85565b92505060606110da87828801611032565b91505092959194509250565b6000602082840312156110fc576110fb610e63565b5b600061110a84828501611032565b91505092915050565b600081519050919050565b600082825260208201905092915050565b60005b8381101561114d578082015181840152602081019050611132565b60008484015250505050565b600061116482611113565b61116e818561111e565b935061117e81856020860161112f565b61118781610e77565b840191505092915050565b61119b81610fd3565b82525050565b6111aa81611011565b82525050565b60008115159050919050565b6111c5816111b0565b82525050565b60006101008201905081810360008301526111e6818b611159565b90506111f5602083018a611192565b6112026040830189611192565b81810360608301526112148188611159565b905061122360808301876111a1565b61123060a08301866111a1565b61123d60c08301856111bc565b61124a60e08301846111a1565b9998505050505050505050565b60006020828403121561126d5761126c610e63565b5b600061127b84828501610ffc565b91505092915050565b600081519050919050565b600082825260208201905092915050565b6000819050602082019050919050565b6112b981611011565b82525050565b60006112cb83836112b0565b60208301905092915050565b6000602082019050919050565b60006112ef82611284565b6112f9818561128f565b9350611304836112a0565b8060005b8381101561133557815161131c88826112bf565b9750611327836112d7565b925050600181019050611308565b5085935050505092915050565b6000602082019050818103600083015261135c81846112e4565b905092915050565b600060208201905061137960008301846111a1565b92915050565b7f496e76616c69642062656e656669636961727920616464726573730000000000600082015250565b60006113b5601b8361111e565b91506113c08261137f565b602082019050919050565b600060208201905081810360008301526113e4816113a8565b9050919050565b7f446561646c696e65206d75737420626520696e20746865206675747572650000600082015250565b6000611421601e8361111e565b915061142c826113eb565b602082019050919050565b6000602082019050818103600083015261145081611414565b9050919050565b7f4e487b7100000000000000000000000000000000000000000000000000000000600052602260045260246000fd5b6000600282049050600182168061149e57607f821691505b6020821081036114b1576114b0611457565b5b50919050565b60008190508160005260206000209050919050565b60006020601f8301049050919050565b600082821b905092915050565b6000600883026115197fffffffffffffffffffffffffffffffffffffffffffffffffffffffffffffffff826114dc565b61152386836114dc565b95508019841693508086168417925050509392505050565b6000819050919050565b600061156061155b61155684611011565b61153b565b611011565b9050919050565b6000819050919050565b61157a83611545565b61158e61158682611567565b8484546114e9565b825550505050565b600090565b6115a3611596565b6115ae818484611571565b505050565b5b818110156115d2576115c760008261159b565b6001810190506115b4565b5050565b601f821115611617576115e8816114b7565b6115f1846114cc565b81016020851015611600578190505b61161461160c856114cc565b8301826115b3565b50505b505050565b600082821c905092915050565b600061163a6000198460080261161c565b1980831691505092915050565b60006116538383611629565b9150826002028217905092915050565b61166c82611113565b67ffffffffffffffff81111561168557611684610e88565b5b61168f8254611486565b61169a8282856115d6565b600060209050601f8311600181146116cd57600084156116bb578287015190505b6116c58582611647565b86555061172d565b601f1984166116db866114b7565b60005b82811015611703578489015182556001820191506020850194506020810190506116de565b86831015611720578489015161171c601f891682611629565b8355505b6001600288020188555050505b505050505050565b7f4e487b7100000000000000000000000000000000000000000000000000000000600052601160045260246000fd5b600061176f82611011565b91507fffffffffffffffffffffffffffffffffffffffffffffffffffffffffffffffff82036117a1576117a0611735565b5b600182019050919050565b60006040820190506117c160008301856111a1565b6117ce60208301846111a1565b9392505050565b7f4e487b7100000000000000000000000000000000000000000000000000000000600052603260045260246000fd5b7f4f6e6c792062656e65666963696172792063616e20636c61696d000000000000600082015250565b600061183a601a8361111e565b915061184582611804565b602082019050919050565b600060208201905081810360008301526118698161182d565b9050919050565b7f446561646c696e65206e6f742072656163686564207965740000000000000000600082015250565b60006118a660188361111e565b91506118b182611870565b602082019050919050565b600060208201905081810360008301526118d581611899565b9050919050565b7f54657374616d656e7420616c726561647920636c61696d656400000000000000600082015250565b600061191260198361111e565b915061191d826118dc565b602082019050919050565b6000602082019050818103600083015261194181611905565b905091905056fea264697066735822122075a09782f233cf425cd597aeb06beb5ae46254b02a0c67bf30655284d9d0d46f64736f6c634300081c0033",
  "linkReferences": {},
  "deployedLinkReferences": {}
}